:02000000942B3F
:0A00060000000000000000000800E8
:100010001D3083120313FC009130FD00FD0B0E28F0
:06002000FC0B0E28080095
:10002600423083120313FD00FD0B17280000080061
:1000360083160313E01B22288312861224288312B8
:1000460086168316601B2A28831206122C28831212
:1000560006168316E01A3228831286113428831274
:1000660086158316601A3A28831206113C288312D5
:1000760006156F184028061441280610861403201A
:1000860086108316E0194A28831286124C2883129A
:100096008616831660195228831206125428831274
:1000A60006168316E0185A28831286115C288312D6
:1000B6008615831660186228831206116428831237
:1000C60006156F186828061469280610861403207A
:0E00D60086106F1C7028082071281320080067
:0E00E4001D3083120313FD00FD0B762808006B
:0E00F200831203136E088A006D088200080056
:10010000831203136F1083165F08E0001B206F1427
:020110000800E5
:100112009B28803083160313DB00AE28C030DB003F
:10012200AE289430DB00AE28D430DB00AE2880301D
:10013200DB00AE28831603135B08013A03198A28F1
:100142005B08023A03198F285B08033A03199228C5
:100152005B08043A0319952898285C03F0005B08B1
:10016200F0077008DB0083126F1470088316E0003A
:100172001B206F1083165D08E0001B206F1408001F
:10018200FF3083160313CB00FF30CC00FF30CD00CD
:10019200FF3083129F01C0309F045B09F00070089A
:0E01A20083169F051F179F1783121F14080056
:1001B00083120313F801F9011030FC00710DF80DE2
:1001C000F90D7408F8027508031C750FF90203187D
:1001D000F0287408F80775080318750FF90703105D
:0A01E000F00DF10DFC0BDE28080005
:1001EA00831203132230FC00F801F901FA01FB0122
:1001FA00FC0303192B290310FB0CFA0CF90CF80C5D
:10020A00F30CF20CF10CF00C031CFD28FC0303198F
:10021A001D297408F80775080318750FF907760879
:10022A000318760FFA0777080318770FFB070129D7
:10023A007408F80775080318750FF9077608031884
:0E024A00760FFA0777080318770FFB070800F6
:100258003E29803083160313DB005129C030DB00B0
:1002680051299430DB005129D430DB0051298030EA
:10027800DB005129831603135B08013A03192D2962
:100288005B08023A031932295B08033A0319352936
:100298005B08043A031938293B295C03F0005B0822
:1002A800F0077008DB007008E0001B206F10831651
:1002B800DE015E085D078400000803196C295E08EA
:1002C8005D0784000008DF0080208316DE0A5D29B0
:0602D80083126F14080000
:1002DE00831203139F01C0309F045B09F000700866
:1002EE0083169F051F179F175B08F000F00D701007
:1002FE00F00D7010F00D7010700883129F041F1413
:10030E0072201F151F1D8D29000089291F101E0820
:10031E00F100F00183161E08F0040030F10408000D
:10032E0083120313FB01FA01F9018030F800F10C7E
:10033E00F00C031CAB297408F90775080318750F28
:10034E00FA070318FB0A0310F01FB3297408FA0703
:10035E0075080318750FFB07FB0CFA0CF90CF80C5B
:10036E00031C9E297B08F3007A08F2007908F1003D
:06037E007808F000080001
:1003840079208A110A128000840AED0A0319EE0A00
:08039400F003031DC22908005B
:10039C0083120313FB01FA01F901F801A001730D9B
:1003AC00F80D7408F8027508031C750FF90276082D
:1003BC00031C760FFA027708031C770FFB0200016F
:1003CC00031C0130A002F30D0730FC00730DF80D77
:1003DC00F90DFA0DFB0DA00D7408731C072AF80219
:1003EC007508031C750FF9027608031C760FFA02C8
:1003FC007708031C770FFB020001031C0130A002DD
:10040C00182AF80775080318750FF90776080318EA
:10041C00760FFA0777080318770FFB07000103180C
:10042C000130A007F30DFC0BEC29720DF80DF90D42
:10043C00FA0DFB0DA00D7408731C362AF802750812
:10044C00031C750FF9027608031C760FFA02770865
:10045C00031C770FFB020001031C0130A002472A8A
:10046C00F80775080318750FF90776080318760F47
:10047C00FA0777080318770FFB0700010318013000
:10048C00A007F20D0730FC00720DF80DF90DFA0DF6
:10049C00FB0DA00D7408721C652AF8027508031C6C
:1004AC00750FF9027608031C760FFA027708031C05
:1004BC00770FFB020001031C0130A002762AF8071B
:1004CC0075080318750FF90776080318760FFA07E5
:1004DC0077080318770FFB07000103180130A007FA
:1004EC00F20DFC0B4A2A710DF80DF90DFA0DFB0DEE
:1004FC00A00D7408721C942AF8027508031C750F61
:10050C00F9027608031C760FFA027708031C770FA2
:10051C00FB020001031C0130A002A52AF807750894
:10052C000318750FF90776080318760FFA07770882
:10053C000318770FFB07000103180130A007F10D1A
:10054C000730FC00710DF80DF90DFA0DFB0DA00D27
:10055C007408711CC32AF8027508031C750FF90284
:10056C007608031C760FFA027708031C770FFB0240
:10057C000001031C0130A002D42AF80775080318E7
:10058C00750FF90776080318760FFA077708031822
:10059C00770FFB07000103180130A007F10DFC0BCE
:1005AC00A82A700DF80DF90DFA0DFB0DA00D7408AD
:1005BC00711CF22AF8027508031C750FF9027608F3
:1005CC00031C760FFA027708031C770FFB0200015D
:1005DC00031C0130A002032BF80775080318750FD4
:1005EC00F90776080318760FFA0777080318770FC0
:1005FC00FB07000103180130A007F00D0730FC00C9
:10060C00700DF80DF90DFA0DFB0DA00D7408701C92
:10061C00212BF8027508031C750FF9027608031CD0
:10062C00760FFA027708031C770FFB020001031CFC
:10063C000130A002322BF80775080318750FF90763
:10064C0076080318760FFA0777080318770FFB075D
:10065C00000103180130A007F00DFC0B062B7018DD
:10066C00452B7408F80775080318750FF9077608F9
:10067C000318760FFA0777080318770FFB070800A3
:10068C0083160313861006100611861106128612A5
:10069C008312861006108612061286110611082087
:1006AC0008200820861506158614032086100820BD
:1006BC008614032086100820861403208610082038
:1006CC000611861403208610082086140320861039
:1006DC0086118616861403208610082086120615AD
:1006EC008614032086100611861403208610082019
:1006FC008614032086100615861403208610082005
:10070C000611861403208610861606168615061505
:0C071C0086140320861008206F140800CB
:1007280006260230831603139F00FF3085008601DA
:1007380087018801C12046230C308316E0001B2066
:1007480001308316E0001B2001308316DB000130E6
:10075800DC003130DD002C2102308316DB00013053
:10076800DC002130DD002C210815081688158717B4
:100778001530FB004B30FC00BE30FD00FD0BC22BDA
:10078800FC0BC22BFB0BC22B0000081108128811AE
:10079800871301308316E0001B2001308316DB002D
:1007A8000130DC00A030DD002C2102308316DB0094
:1007B8000130DC00BE30DD002C218316CF01D001D2
:1007C800D101D201D301D40100305402031DEE2B14
:1007D8006430530203180F2CDB016F210030F20044
:1007E800F3004F08F00750080318500FF10751089D
:1007F8000318510FF20752080318520FF307700835
:10080800CF007108D0007208D1007308D200D30A53
:100818000319D40AE82B6430F400F501F601F70156
:100828004F08F0005008F1005108F2005208F30098
:10083800CE217D30F400F501F601F701F520643092
:10084800F400F501F601F701CE2170088316D500F2
:100858007108D6000230DB006F210030F200F3008F
:100868009630F400F501F601F701F520FF30F400A9
:100878000330F500F601F701CE2170088316D70082
:100888007108D8000130DB006F213030F4000030EF
:10089800F50097216430F4000030F500D820700886
:1008A8008316D9007108DA007108003C031D5E2C1C
:1008B80070082E3C0318B32C0130E0001B200130D7
:1008C8008316DB000130DC00AD30DD002C21023066
:1008D8008316DB000130DC005C30DD002C2187173B
:1008E80008168811081183165A08003C031D7E2C2F
:1008F8005908283C03189F2C0130DB006F21303049
:10090800F4000030F50097216430F4000030F50061
:10091800D82070088316D9007108DA000530FB006A
:100928000F30FC00F130FD00FD0B982CFC0B982CCF
:10093800FB0B982C772C0130E0001B20013083162C
:10094800DB000130DC004E30DD002C210230831644
:10095800DB000130DC004130DD002C217B2D013033
:100968008316DB000730DC006430F4000030F5004B
:100978005508F0005608F100D8203030700783166B
:10098800DD00892001308316DB000830DC000A30E6
:10099800F4000030F5005508F0005608F100D820A2
:1009A8000A30F4000030F500D8207808F000790803
:1009B800F100303070078316DD008920013083167E
:1009C800DB000930DC000A30F4000030F50055087F
:1009D800F0005608F100D8207808F0007908F100F6
:1009E800303070078316DD00892002308316DB0063
:1009F8000730DC006430F4000030F5005708F000E0
:100A08005808F100D820303070078316DD0089209F
:100A180002308316DB000830DC000A30F4000030B6
:100A2800F5005708F0005808F100D8200A30F40003
:100A38000030F500D8207808F0007908F10030304F
:100A480070078316DD00892002308316DB00093029
:100A5800DC002E30DD00892002308316DB000A30EE
:100A6800DC000A30F4000030F5005708F0005808A0
:100A7800F100D8207808F0007908F10030307007CC
:100A88008316DD008920003083165602031D4E2D83
:100A9800AA3055020318532D0130CE00542DCE0133
:100AA8004E18592D831208115B2D831208158316D1
:100AB8005808003C031D622D5708733C0318692D24
:100AC80083128815081287137B2D83165808003C5B
:100AD800031D702D5708643C0318772D8312881165
:100AE800081687137B2D831288110816871705307F
:100AF800FB000F30FC00F130FD00FD0B812DFC0BDD
:0A0B0800812DFB0B812DE12B882DC0
:100C0C00213084004C3083120313F0008E30ED0041
:100C1C000530EE00C221A03084002B300313F0000D
:0C0C2C00DA30ED000530EE00C2210800B7
:100B1C002034203450344F34573445345234493413
:100B2C004E34473420344F344E3420342034003487
:100B3C0020344D3455345434413450344134203401
:100B4C0045344E344534523447345934203400340F
:100B5C0042344134543454343A3420342034203424
:0A0B6C0020342E34203456340034B7
:100B760047345234493444343A342034203420340F
:0A0B86002034563441344334003467
:020B90000F3420
:100B92002034533459345334543445344D3420348E
:100BA20043344F344F344C3449344E344734203478
:020BB20000340D
:100BB40047345234493444343A34203420342034D1
:0A0BC4002034563441344334003429
:100BCE0021342134213420344F34563445345234B8
:100BDE0048344534413454342034213421342134C2
:020BEE000034D1
:100BF00042344134543454343A3420342034203490
:0A0C000020342E3420345634003422
:02400E004A2F37
:00000001FF
